:020000040800F2
:10000000002800201D1B0008A51A0008AD1A0008D2
:10001000B51A0008BD1A0008C51A00080000000043
:10002000000000000000000000000000CD1A0008E1
:10003000D91A000800000000E51A0008F11A0008AB
:10004000651B0008651B0008651B0008651B000890
:10005000651B0008651B0008651B0008651B000880
:10006000651B0008651B0008651B0008651B000870
:10007000651B0008651B0008651B0008651B000860
:10008000651B0008651B0008651B0008651B000850
:10009000651B0008651B0008651B0008651B000840
:1000A000651B0008651B0008651B0008651B000830
:1000B000FD1A0008651B000800000000651B000811
:1000C000651B00080000000000000000651B000820
:1000D00000000000651B0008651B00080000000010
:1000E000651B0008651B0008651B00080000000078
:1000F0000000000000000000000000000000000000
:0C01000000000000000000005FF808F1A3
:10010C0010B5054C237833B9044B13B10448AFF345
:10011C0000800123237010BD780000200000000037
:10012C00A431000808B5034B1BB103490348AFF3D6
:10013C00008008BD000000007C000020A4310008F5
:10014C0080B400AF064B1B68012B04D1044B00227A
:10015C001A60012300E000231846BD4680BC70479E
:10016C009400002080B400AF064B1B68012B04D117
:10017C00044B00221A60012300E000231846BD4600
:10018C0080BC70479800002080B400AF064B1B6801
:10019C00012B04D1044B00221A60012300E0002340
:1001AC001846BD4680BC70479C00002080B400AF50
:1001BC00034B01221A6000BFBD4680BC704700BFD4
:1001CC009400002080B400AF034B01221A6000BFE2
:1001DC00BD4680BC704700BF9800002080B400AFC3
:1001EC00034B01221A6000BFBD4680BC704700BFA4
:1001FC009C00002080B500AF174B1B68174A13609A
:10020C00174B1B68144A13604FF40051154801F04A
:10021C0091FF03461A46124B1A60104B1A680E4B8C
:10022C001B689A4215D10C4B1A680D4B1B689A42ED
:10023C000FD10D4B1A680A4B1B689A4209D0084B18
:10024C001B68094A1360064B1B68002B01D1FFF792
:10025C00ADFF00BF80BD00BF0400002000000020E7
:10026C0008000020000C01402400002080B500AFE5
:10027C00174B1B68174A1360174B1B68144A136003
:10028C004FF48041154801F055FF03461A46124BB6
:10029C001A60104B1A680E4B1B689A4215D10C4B06
:1002AC001A680D4B1B689A420FD10D4B1A680A4BFA
:1002BC001B689A4209D0084B1B68094A1360064B0D
:1002CC001B68002B01D1FFF77DFF00BF80BD00BF75
:1002DC00100000200C00002014000020000C014035
:1002EC002800002080B500AF174B1B68174A13601D
:1002FC00174B1B68144A13604FF40041154801F06A
:10030C0019FF03461A46124B1A60104B1A680E4B13
:10031C001B689A4215D10C4B1A680D4B1B689A42FC
:10032C000FD10D4B1A680A4B1B689A4209D0084B27
:10033C001B68094A1360064B1B68002B01D1FFF7A1
:10034C004DFF00BF80BD00BF1C0000201800002026
:10035C0020000020000C01402C00002080B483B051
:10036C0000AF0023FB7174E0FA793E4913469B0001
:10037C0013449B000B441B68002B67D0FA79394956
:10038C0013469B0013449B000B4404331B68002B47
:10039C0049D1FA79334913469B0013449B000B4413
:1003AC000C331B78FA790133D8B22E4913469B00D3
:1003BC0013449B000B440C3302461A702A4B1B78D7
:1003CC0019462A4AFB795354274B1B785A1C284B45
:1003DC0083FB02131911D317C91A0B469B000B444C
:1003EC00DB00D11ACAB2204B1A70FA791D49134698
:1003FC009B0013449B000B4408331B68002B25D037
:10040C00F979FA7917480B469B000B449B0003447F
:10041C0008331968134813469B0013449B0003448C
:10042C000433196012E0FA790E4913469B00134409
:10043C009B000B4404331B68FA79591E0948134678
:10044C009B0013449B00034404331960FB79013374
:10045C00FB71FB79272B87D900BF00BF0C37BD463A
:10046C0080BC7047A4000020A2000020C403002020
:10047C006766666680B487B000AFF860B9607A6072
:10048C000023FB7502E0FB7D0133FB75FA7D2049EF
:10049C0013469B0013449B000B441B68002B02D09B
:1004AC00FB7D272BEFD9FB7D282B04D1194B012287
:1004BC001A70282327E0FA7D154913469B00134434
:1004CC009B000B44FA681A60FA7D114913469B0095
:1004DC0013449B000B440433BA681A60FA7D0C4930
:1004EC0013469B0013449B000B4408337A681A6034
:1004FC00FA7D074913469B0013449B000B440C33B5
:10050C0000221A70FB7D18461C37BD4680BC704714
:10051C00A4000020A000002080B582B000AF4EE007
:10052C00FA792D4913469B0013449B000B440C3362
:10053C001B78002B43D0294B1B781A46284B9B5C0D
:10054C00FB71264B1B785A1C264B83FB021319118B
:10055C00D317C91A0B469B000B44DB00D11ACAB245
:10056C001E4B1A70FA791C4913469B0013449B00CE
:10057C000B441B689847FA79174913469B001344A0
:10058C009B000B440C331B78FA79013BD8B212490F
:10059C0013469B0013449B000B440C3302461A7009
:1005AC00FA790D4913469B0013449B000B44083306
:1005BC001B68002B03D1FB79184600F017F8074B8A
:1005CC001A78094B1B789A42AAD100F057F800BF51
:1005DC000837BD4680BD00BFA4000020A10000204C
:1005EC00C403002067666666A200002080B485B054
:1005FC0000AF0346FB71FA791E4913469B00134466
:10060C009B000B441B68002B05D11B4B02221A705C
:10061C000323FB7301E00423FB73FA79154913469A
:10062C009B0013449B000B4400221A60FA79114979
:10063C0013469B0013449B000B44043300221A60A6
:10064C00FA790C4913469B0013449B000B44083366
:10065C0000221A60FA79074913469B0013449B0049
:10066C000B440C3300221A70FB7B18461437BD4622
:10067C0080BC7047A4000020A000002080B500AF13
:10068C000121002001F086FD00BF80BD80B400AFC9
:10069C00074B00221A60074B01221A60064B0122FD
:1006AC001A60064B01221A6000BFBD4680BC704721
:1006BC00F40300206000002064000020680000208B
:1006CC0080B500AF344B1B68012B63D1334B1B68D7
:1006DC00184601F021F9324B1B68DBB21A46022195
:1006EC00304801F03EFD304B1B68DBB21A4604214A
:1006FC002C4801F036FD2D4B1B68DBB21A46082145
:10070C00284801F02EFD2A4B1B68DBB21A4610213B
:10071C00244801F026FD224B1B68002B0BD1254BE6
:10072C001B68184600F01EFF1D4B01221A601E4B61
:10073C0000221A602EE01C4B1B68002B0BD11D4BAA
:10074C005B68184600F00EFF174B01221A60174B1E
:10075C0000221A601EE0154B1B68002B0BD1154BA9
:10076C009B68184600F0FEFE104B01221A60104BDD
:10077C0000221A600EE00E4B1B68002B0AD10D4BA9
:10078C00DB68184600F0EEFE094B01221A60044BA0
:10079C0000221A6000BF80BD4C0400205C000020C9
:1007AC00F4030020000801406000002064000020D9
:1007BC00680000203000002080B483B000AF786067
:1007CC0039607B681E4A82FB03129211DB17D31A25
:1007DC001C4A13607B681C4A82FB03125211DB1704
:1007EC00D11A1A4B83FB01239A10CB17D21A13463A
:1007FC009B0013445B00CA1A124B5A603B68104AA8
:10080C0082FB03129211DB17D31A0E4A93603B68DA
:10081C000D4A82FB03125211DB17D11A0B4B83FBCF
:10082C0001239A10CB17D21A13469B0013445B007A
:10083C00CA1A044BDA6000BF0C37BD4680BC704747
:10084C00D34D6210300000201F85EB516766666641
:10085C0080B483B000AF7860134B00221A60124B47
:10086C0000225A607B68114A82FB03129211DB173B
:10087C00D31A0D4A93607B680D4A82FB0312521106
:10088C00DB17D11A0B4B83FB01239A10CB17D21A0F
:10089C0013469B0013445B00CA1A034BDA6000BF7B
:1008AC000C37BD4680BC704730000020D34D621021
:1008BC001F85EB516766666680B500AF164B1B68EB
:1008CC00152B26D1154B1B68012B14D1642001F07C
:1008DC0037F8134B1B68643B114A1360114B1B68B0
:1008EC00643B104A13600E4B1B680E4A126811468B
:1008FC001846FFF761FF0A4B1B68002B02DA084B06
:10090C0000221A60074B1B68002B02DA054B0022F1
:10091C001A6000BF80BD00BF4000002054040020BE
:10092C00440000204800002080B500AF114B1B682C
:10093C00162B13D0162B17DC142B02D0152B04D02E
:10094C0012E00C4B15221A600FE00B4B1B680B4A84
:10095C00126811461846FFF72FFF06E0084B1B687C
:10096C001846FFF775FF00E000BFFFF7A9FE00BFB8
:10097C0080BD00BF40000020440000204800002043
:10098C004C00002080B500AF994B1B68013B042B39
:10099C0000F2228101A252F823F000BFBD09000829
:1009AC00ED090008730A0008F70A0008750B000827
:1009BC0000F010FC00F03EFC00F06CFC00F022FC9F
:1009CC0000F050FC00F07EFC894B02221A60894B2F
:1009DC0015221A60884B1B68184600F089FF04E149
:1009EC0000F0ECFB00F026FC00F054FC00F00AFCDC
:1009FC0000F038FC00F05AFCFFF7A2FB0346012B79
:100A0C001AD17E4B00221A60794B0C221A607C4B57
:100A1C0001221A607B4B1B687B4A13607A4B1B6864
:100A2C001846FFF715FFFFF731FE724B16221A60BE
:100A3C004FF4FA7000F05CFF714B1B68012B40F017
:100A4C00CD80724BC8221A60714BC8221A60684B59
:100A5C0003221A60674B15221A606E4B1B681846EE
:100A6C0000F046FFBAE000F0A9FB00F0E3FB00F059
:100A7C0011FC00F0C7FB00F0E9FB00F023FCFFF7D2
:100A8C005FFB0346012B17D1594B0C221A605C4BB0
:100A9C0001221A605B4B1B685B4A13605A4B1B6844
:100AAC001846FFF7D5FEFFF7F1FD524B16221A60E0
:100ABC004FF4FA7000F01CFF514B1B68012B40F0F7
:100ACC008F80524B4FF496721A60514B4FF4FA725E
:100ADC001A60474B04221A60464B15221A60464B8B
:100AEC001B68184600F004FF7AE000F073FB00F07E
:100AFC00A1FB00F0C3FB00F079FB00F0B3FB00F0AE
:100B0C00E1FBFFF71DFB0346012B17D1384B0C22E1
:100B1C001A603B4B01221A603A4B1B683A4A13602D
:100B2C00394B1B681846FFF793FEFFF7AFFD314BAF
:100B3C0016221A604FF4FA7000F0DAFE304B1B6884
:100B4C00012B4FD1314BC8221A60314BC8221A608D
:100B5C00274B05221A60274B15221A602D4B1B6858
:100B6C00184600F0C5FE3DE000F034FB00F056FBEB
:100B7C0000F090FB00F03AFB00F074FB00F0A2FBDD
:100B8C00FFF7DEFA0346012B0ED11D4B01221A6032
:100B9C00174B0C221A60174B16221A60FFF776FDC2
:100BAC004FF4FA7000F0A4FE154B1B68012B1BD1FF
:100BBC00164B4FF4FA721A60154B4FF496721A607A
:100BCC000B4B02221A600B4B15221A600A4B1B6846
:100BDC00184600F08DFE07E000BF06E000BF04E001
:100BEC0000BF02E000BF00E000BF00BF80BD00BF3F
:100BFC00EC0300204000002058000020F0030020EF
:100C0C0044040020500000204C0000204400002030
:100C1C00480000205400002080B500AF754B1B68C5
:100C2C000E2B00F0D3810E2B00F3AD820C2B03D0D6
:100C3C000D2B00F0F780A6E200F0C0FA00F0D6FA17
:100C4C0000F0F8FA00F00EFB00F024FB00F03AFB89
:100C5C00FFF776FA0346012B18D1674B00221A6076
:100C6C00664B01221A60634B0D221A60644B1622EC
:100C7C001A60644B1B68644A1360634B1B6818460C
:100C8C00FFF7E6FD4FF4FA7000F032FEFFF76AFA58
:100C9C000346012B19D1584B1B686433564A136019
:100CAC005A4B1B686433594A1360584B1B68564A9D
:100CBC001360554B1B681846FFF7CAFD4F4B0122BA
:100CCC001A604FF4FA7000F013FEFFF75DFA03465A
:100CDC00012B67D14D4B1B684D4A82FB03125211FD
:100CEC00DB17D21A4B4B83FB021313449911D31706
:100CFC00C91A0B465B000B4459010B44D11A6423EF
:100D0C0001FB03F3414A1360404B1B68B3F57A7F38
:100D1C0014DA3E4B1B683E4A82FB03129211DB171E
:100D2C00D31A642202FB03F33B4A1360374B1A6855
:100D3C00394B1B68D31A334A136013E0334B1B68CF
:100D4C00334A82FB0312D211DB17D31A642202FB43
:100D5C0003F3314A13602D4B1A682F4B1B68D31ABF
:100D6C00284A1360234B02221A60244B01221A607A
:100D7C00264B1B68294A1360224B1B68284A1360B8
:100D8C001F4B15221A60254B1B68254A1268114609
:100D9C001846FFF711FDFFF779FC1A4B1B68184634
:100DAC0000F0A6FD154B1B68012B40F0EE81174B94
:100DBC001A68114B1B68D31A144A13600D4B02228C
:100DCC001A60124B1B68154A13600E4B1B68144AB1
:100DDC0013600B4B15221A60104B1B68104A1268DB
:100DEC0011461846FFF7E8FC064B1B68184600F046
:100DFC007FFDCAE1EC030020F00300204404002036
:100E0C0040000020580000204C0000205000002022
:100E1C001F85EB5103B57EA5540000204400002033
:100E2C004800002000F0D6F900F0ECF900F002FACE
:100E3C0000F018FA00F022FA00F038FAFFF780F907
:100E4C000346012B18D1A14B00221A60A04B0E2295
:100E5C001A60A04B16221A609F4B01221A609F4BFE
:100E6C001B689F4A13609E4B1B681846FFF7F0FCEB
:100E7C004FF4FA7000F03CFDFFF774F90346012BB8
:100E8C0019D1924B1B686433904A1360954B1B68C5
:100E9C006433944A1360934B1B68914A1360904BD4
:100EAC001B681846FFF7D4FC8B4B01221A604FF4D9
:100EBC00FA7000F01DFDFFF767F90346012B5AD1BC
:100ECC00884B1B68884A82FB03125211DB17D11A1C
:100EDC00864B83FB0123DA10CB17D21A13469B00E7
:100EEC0013441A01D21A8A1A642302FB03F37D4AB3
:100EFC0013607C4B1B68B3F5FA7F0BDC794B1B68DA
:100F0C00764A1360774B1A68744B1B681344784A03
:100F1C00136010E0734B1B689B00764A82FB031234
:100F2C00DB17D31A724A1360714B1A686D4B1B682E
:100F3C00D31A6A4A1360664B02221A60664B01226E
:100F4C001A606B4B1B686C4A1360664B1B686B4AD0
:100F5C001360694B1B68694A126811461846FFF703
:100F6C002BFC5C4B15221A60FFF790FB5D4B1B684A
:100F7C00184600F0BDFC584B1B68012B40F0078154
:100F8C00584B1A68514B1B68D31A564A1360504B76
:100F9C0002221A60504B01221A60554B1B68564AAC
:100FAC001360504B1B68554A1360534B1B68534AD4
:100FBC00126811461846FFF7FFFB464B15221A60C4
:100FCC00484B1B68184600F093FCE0E000F002F977
:100FDC0000F018F900F022F900F038F900F05AF995
:100FEC0000F070F9FFF7ACF80346012B1AD1384B1F
:100FFC000C221A60354B00221A60364B16221A60EE
:10100C003B4B1B68364A1360354B1B681846FFF781
:10101C001FFCFFF73BFB304B01221A604FF4FA70B8
:10102C0000F066FCFFF79EF80346012B1CD1294B00
:10103C0016221A60254B1B686433244A1360274B15
:10104C001B686433254A1360244B1B68244A1360C5
:10105C00234B1B681846FFF7FBFB1F4B01221A6042
:10106C004FF4FA7000F044FCFFF78EF80346012BA6
:10107C0067D11A4B1B681C4A82FB03125111DA17F9
:10108C008A1A642101FB02F29A1A1D4B83FB02138C
:10109C009910D317C91A0B465B000B44DB00D11A0D
:1010AC00642301FB03F30D4A13600C4B1B68B3F56F
:1010BC00C87F27DC094B1B680A4A1360094B1A6866
:1010CC00064B1B6813440A4A136027E0F003002008
:1010DC00EC030020400000204404002054000020B9
:1010EC004C000020580000201F85EB51B5814E1B91
:1010FC005000002056555555440000204800002053
:10110C00ABAAAA2A244B1B689B00244A1360234BCE
:10111C001A68214B1B68D31A214A1360214B0222F7
:10112C001A60214B01221A601D4B1B68184600F0F7
:10113C00DFFB1A4B1B681D4A1360194B1B681C4ABA
:10114C001360194B1B68012B23D1134B1A68194BD5
:10115C001B68D31A104A1360124B02221A60124BEE
:10116C0001221A600D4B1B68104A13600C4B1B6854
:10117C000F4A1360104B15221A60094B1B68184656
:10118C0000F0B6FB05E000BF04E000BF02E000BFCA
:10119C0000E000BF00BF80BD5400002050000020C4
:1011AC0058000020EC0300204404002044000020E0
:1011BC0048000020F00300204000002080B500AF64
:1011CC0000222021024800F0CCFF00BF80BD00BFF0
:1011DC000008014080B500AF01222021024800F038
:1011EC00C0FF00BF80BD00BF0008014080B500AF4C
:1011FC0000224FF48071024800F0B3FF00BF80BDA5
:10120C000008014080B500AF01224FF48071024804
:10121C0000F0A7FF00BF80BD0008014080B500AF03
:10122C0000224021024800F09CFF00BF80BD00BF9F
:10123C000008014080B500AF01224021024800F0B7
:10124C0090FF00BF80BD00BF0008014080B500AF1B
:10125C0000224FF40071024800F083FF00BF80BDF4
:10126C000008014080B500AF01224FF40071024824
:10127C0000F077FF00BF80BD0008014080B500AFD3
:10128C0000228021024800F06CFF00BF80BD00BF2F
:10129C000008014080B500AF01228021024800F017
:1012AC0060FF00BF80BD00BF0008014080B500AFEB
:1012BC0000224FF48061024800F053FF00BF80BD54
:1012CC000008014080B500AF01224FF48061024854
:1012DC0000F047FF00BF80BD0008014080B500AFA3
:1012EC0000F03CFC00F032F800F0B8F800F06AF8BE
:1012FC00114801F099FB114B01221A606422C8219C
:10130C000F48FFF7B7F84FF4FA724FF496710D4887
:10131C00FFF7B0F864220A210B48FFF7ABF80F2057
:10132C0000F0FAFA642000F00BFBFFF7F5F8FFF77A
:10133C00C3FA00BFF9E700BFF8030020EC0300205C
:10134C0091090008250C00083509000880B590B0FB
:10135C0000AF07F1180328220021184601F0F0FE17
:10136C003B1D00221A605A609A60DA601A610223EF
:10137C00BB610123BB621023FB6200237B6307F17B
:10138C001803184600F022FF0346002B01D000F092
:10139C00E3F80F237B600023BB600023FB6000237A
:1013AC003B6100237B613B1D0021184601F090F945
:1013BC000346002B01D000F0CFF800BF4037BD46EC
:1013CC0080BD000080B586B000AF07F10803002295
:1013DC001A605A609A60DA603B4600221A605A60C2
:1013EC001D4B4FF080421A601B4B41F63F725A6006
:1013FC00194B00229A60184B0922DA60164B002216
:10140C001A61154B00229A61134801F0BDFA03468C
:10141C00002B01D000F0A0F84FF48053BB6007F113
:10142C00080319460C4801F03BFC0346002B01D085
:10143C0000F092F800233B6000237B603B4619468A
:10144C00054801F013FE0346002B01D000F084F890
:10145C0000BF1837BD4680BDF803002080B586B0AC
:10146C0000AF07F1080300221A605A609A60DA6034
:10147C002D4B9B692C4A43F0040393612A4B9B69C7
:10148C0003F004037B607B68274B9B69264A43F07F
:10149C0008039361244B9B6903F008033B603B6892
:1014AC000022FE21214800F05CFE00227F21204812
:1014BC0000F057FEFE23BB600123FB6000233B6161
:1014CC0002237B6107F108031946184800F0B6FCAB
:1014DC007F23BB600123FB6000233B6102237B6104
:1014EC0007F108031946124800F0A8FC4FF46043BA
:1014FC00BB600023FB6001233B6107F10803194625
:10150C000B4800F09BFC4FF4E063BB600023FB60D6
:10151C0001233B6107F108031946044800F08EFCD7
:10152C0000BF1837BD4680BD0010024000080140C6
:10153C00000C014080B582B000AF786000F014FA66
:10154C00FEF758FEFEF792FEFEF7CCFEFEF706FF06
:10155C0000BF0837BD4680BD80B400AF72B600BF77
:10156C0000BFFDE780B584B000AF78600023FB605E
:10157C000123BB60BB68DBB21A460121A94800F00D
:10158C00F0FDBB68DBB21A460221A64800F0E9FD6B
:10159C00BB68DBB21A460421A24800F0E2FDBB682E
:1015AC00DBB21A4608219F4800F0DBFDBB68DBB2BA
:1015BC001A4610219B4800F0D4FDBB68DBB21A46DA
:1015CC002021984800F0CDFDBB68DBB21A464021C3
:1015DC00944800F0C6FD7B68092B00F2828101A2C1
:1015EC0052F823F0191600087D1600089B16000807
:1015FC00E31600082B17000865170008AD17000844
:10160C00031800083518000899180008FB68DBB2AD
:10161C001A460121834800F0A4FDFB68DBB21A4690
:10162C000221804800F09DFDFB68DBB21A460421C4
:10163C007C4800F096FDFB68DBB21A46082179481D
:10164C0000F08FFDFB68DBB21A461021754800F0E4
:10165C0088FDFB68DBB21A462021724800F081FD40
:10166C00BB68DBB21A4640216E4800F07AFD39E1C6
:10167C00FB68DBB21A4602216A4800F072FDFB6877
:10168C00DBB21A460421674800F06BFD2AE1FB68C7
:10169C00DBB21A460121634800F063FDFB68DBB244
:1016AC001A4602215F4800F05CFDFB68DBB21A466B
:1016BC0008215C4800F055FDFB68DBB21A4610218E
:1016CC00584800F04EFDFB68DBB21A4640215548E5
:1016DC0000F047FD06E1FB68DBB21A4601215148D8
:1016EC0000F03FFDFB68DBB21A4602214D4800F0CA
:1016FC0038FDFB68DBB21A4604214A4800F031FD84
:10170C00FB68DBB21A460821464800F02AFDFB684C
:10171C00DBB21A464021434800F023FDE2E0FB68AF
:10172C00DBB21A4602213F4800F01BFDFB68DBB21E
:10173C001A4604213B4800F014FDFB68DBB21A4644
:10174C002021384800F00DFDFB68DBB21A46402121
:10175C00344800F006FDC5E0FB68DBB21A460121F7
:10176C00304800F0FEFCFB68DBB21A4604212D4821
:10177C0000F0F7FCFB68DBB21A460821294800F0A0
:10178C00F0FCFB68DBB21A462021264800F0E9FC8D
:10179C00FB68DBB21A464021224800F0E2FCA1E0D3
:1017AC00FB68DBB21A4601211E4800F0DAFCFB682C
:1017BC00DBB21A4604211B4800F0D3FCFB68DBB2F9
:1017CC001A460821174800F0CCFCFB68DBB21A461D
:1017DC001021144800F0C5FCFB68DBB21A4620212E
:1017EC00104800F0BEFCFB68DBB21A4640210D48E5
:1017FC0000F0B7FC76E0FB68DBB21A460121094821
:10180C0000F0AFFCFB68DBB21A460221054800F081
:10181C00A8FCFB68DBB21A460421024800F0A1FCCC
:10182C0060E000BF000C0140FB68DBB21A460121EE
:10183C002E4800F096FCFB68DBB21A4602212B48BE
:10184C0000F08FFCFB68DBB21A460421274800F03D
:10185C0088FCFB68DBB21A460821244800F081FCA6
:10186C00FB68DBB21A461021204800F07AFCFB68BA
:10187C00DBB21A4620211D4800F073FCFB68DBB27A
:10188C001A464021194800F06CFC2BE0FB68DBB2D7
:10189C001A460121154800F064FCFB68DBB21A46BD
:1018AC000221124800F05DFCFB68DBB21A460421F1
:1018BC000E4800F056FCFB68DBB21A4608210B48B8
:1018CC0000F04FFCFB68DBB21A462021074800F001
:1018DC0048FCFB68DBB21A464021044800F041FC8E
:1018EC0000E000BF00BF1037BD4680BD000C0140BA
:1018FC0080B483B000AF7860054A7B681360054BF9
:10190C0000221A6000BF0C37BD4680BC704700BF78
:10191C00400400204404002080B483B000AF786001
:10192C00054A7B681360054B00221A6000BF0C3718
:10193C00BD4680BC704700BF480400204C0400200A
:10194C0080B483B000AF7860054A7B681360054BA8
:10195C0000221A6000BF0C37BD4680BC704700BF28
:10196C00500400205404002080B400AF194B1B68B5
:10197C00002B0BDD174B1B68013B164A1360154BF4
:10198C001B68002B02DC144B01221A60134B1B68E2
:10199C00002B0BDD114B1B68013B104A13600F4BE6
:1019AC001B68002B02DC0E4B01221A600D4B1B68CE
:1019BC00002B0BDD0B4B1B68013B0A4A1360094BD8
:1019CC001B68002B02DC084B01221A6000BFBD46CD
:1019DC0080BC7047400400204404002048040020D0
:1019EC004C040020500400205404002080B485B026
:1019FC0000AF154B9B69144A43F001039361124BE2
:101A0C009B6903F00103BB60BB680F4BDB690E4A9B
:101A1C0043F08053D3610C4BDB6903F080537B6044
:101A2C007B680A4B5B68FB60FB6823F0E063FB6040
:101A3C00FB6843F08063FB60044AFB68536000BFA3
:101A4C001437BD4680BC70470010024000000140B6
:101A5C0080B584B000AF78607B681B68B3F1804FB1
:101A6C0013D10C4BDB690B4A43F00103D361094BD7
:101A7C00DB6903F00103FB60FB68002200211C20E2
:101A8C0000F0A5F91C2000F0BEF900BF1037BD46D0
:101A9C0080BD00BF0010024080B400AF00BFFDE766
:101AAC0080B400AF00BFFDE780B400AF00BFFDE71E
:101ABC0080B400AF00BFFDE780B400AF00BFFDE70E
:101ACC0080B400AF00BFBD4680BC704780B400AF8F
:101ADC0000BFBD4680BC704780B400AF00BFBD46A0
:101AEC0080BC704780B500AF00F07EF800BF80BDB1
:101AFC0080B500AF024800F0E3FF00BF80BD00BF1F
:101B0C00F803002080B400AF00BFBD4680BC704716
:101B1C00FFF7F8FF0B480C490C4A002302E0D4589D
:101B2C00C4500433C4188C42F9D3094A094C00231D
:101B3C0001E013600432A242FBD301F009FBFFF772
:101B4C00CDFB70470000002078000020E831000831
:101B5C00780000205C040020FEE7000080B500AF98
:101B6C00084B1B68074A43F010031360032000F076
:101B7C0023F90F2000F008F8FFF738FF0023184670
:101B8C0080BD00BF0020024080B582B000AF7860FD
:101B9C00124B1A68124B1B7819464FF47A73B3FB2D
:101BAC00F1F3B2FBF3F3184600F03BF90346002BBC
:101BBC0001D001230EE07B680F2B0AD80022796834
:101BCC004FF0FF3000F003F9064A7B6813600023E6
:101BDC0000E0012318460837BD4680BD6C0000208C
:101BEC00740000207000002080B400AF054B1B78FF
:101BFC001A46054B1B681344034A136000BFBD46CD
:101C0C0080BC7047740000205804002080B400AFE2
:101C1C00024B1B681846BD4680BC70475804002018
:101C2C0080B485B000AF78607B6803F00703FB607D
:101C3C000C4BDB68BB60BA684FF6FF031340BB600C
:101C4C00FB681A02BB68134343F0BF6343F40033D1
:101C5C00BB60044ABB68D36000BF1437BD4680BC70
:101C6C00704700BF00ED00E080B400AF044BDB68B0
:101C7C001B0A03F007031846BD4680BC704700BF23
:101C8C0000ED00E080B483B000AF0346FB7197F920
:101C9C000730002B0BDBFB7903F01F02064997F989
:101CAC0007305B09012000FA02F241F8232000BF43
:101CBC000C37BD4680BC704700E100E080B483B0B7
:101CCC0000AF03463960FB7197F90730002B0ADB34
:101CDC003B68DAB20C4997F907301201D2B20B44C7
:101CEC0083F800230AE03B68DAB20849FB7903F079
:101CFC000F03043B1201D2B20B441A7600BF0C370F
:101D0C00BD4680BC704700BF00E100E000ED00E084
:101D1C0080B489B000AFF860B9607A60FB6803F0FA
:101D2C000703FB61FB69C3F10703042B28BF0423E2
:101D3C00BB61FB690433062B02D9FB69033B00E052
:101D4C0000237B614FF0FF32BB6902FA03F3DA43E5
:101D5C00BB681A407B699A404FF0FF317B6901FAEE
:101D6C0003F3D9437B680B40134318462437BD4615
:101D7C0080BC704780B582B000AF78607B68013B57
:101D8C00B3F1807F01D301230FE00A4A7B68013B4A
:101D9C0053600F214FF0FF30FFF790FF054B0022EF
:101DAC009A60044B07221A60002318460837BD4678
:101DBC0080BD00BF10E000E080B582B000AF78605D
:101DCC007868FFF72DFF00BF0837BD4680BD80B592
:101DDC0086B000AF0346B9607A60FB7300237B6169
:101DEC00FFF742FF78617A68B9687869FFF790FF6E
:101DFC00024697F90F3011461846FFF75FFF00BFF8
:101E0C001837BD4680BD80B582B000AF0346FB716C
:101E1C0097F907301846FFF735FF00BF0837BD4666
:101E2C0080BD80B582B000AF78607868FFF7A2FF04
:101E3C00034618460837BD4680BD000080B48BB001
:101E4C0000AF7860396000237B6200233B6261E164
:101E5C0001227B6A02FA03F3FB613B681B68FA6997
:101E6C001340BB61BA69FB699A4240F050813B68F0
:101E7C005B68974A93425ED0954A934275D8954ACF
:101E8C00934258D0934A93426FD8934A934252D07C
:101E9C00914A934269D8914A93424CD08F4A9342CB
:101EAC0063D88F4A934246D08D4A93425DD8122B09
:101EBC002AD8122B59D801A252F823F0431F00083C
:101ECC001D1F00082F1F0008711F0008771F000836
:101EDC00771F0008771F0008771F0008771F00087E
:101EEC00771F0008771F0008771F0008771F00086E
:101EFC00771F0008771F0008771F0008771F00085E
:101F0C00251F0008391F0008764A934213D02CE095
:101F1C003B68DB683B6229E03B68DB6804333B626F
:101F2C0024E03B68DB6808333B621FE03B68DB68FE
:101F3C000C333B621AE03B689B68002B02D10423F4
:101F4C003B6213E03B689B68012B05D108233B6285
:101F5C007B68FA691A6109E008233B627B68FA69BD
:101F6C005A6103E000233B6200E000BFBB69FF2B1A
:101F7C0001D87B6801E07B6804337B61BB69FF2B74
:101F8C0002D87B6A9B0002E07B6A083B9B003B61AA
:101F9C007B691A680F213B6901FA03F3DB431A4092
:101FAC00396A3B6901FA03F31A437B691A603B688F
:101FBC005B6803F08053002B00F0A9804A4B9B69AF
:101FCC00494A43F001039361474B9B6903F00103BA
:101FDC00BB60BB68454A7B6A9B08023352F82330CE
:101FEC00FB607B6A03F003039B000F2202FA03F3EE
:101FFC00DB43FA681340FB607B683D4A93420DD08B
:10200C007B683C4A934207D07B683B4A934201D1A0
:10201C00022304E0032302E0012300E000237A6A98
:10202C0002F0030292009340FA681343FB602F49BD
:10203C007B6A9B080233FA6841F823203B685B6893
:10204C0003F48013002B06D02C4B9A682B49BB69E8
:10205C0013438B6006E0294B9A68BB69DB43274925
:10206C0013408B603B685B6803F40013002B06D0B5
:10207C00224BDA682149BB691343CB6006E01F4B46
:10208C00DA68BB69DB431D491340CB603B685B6876
:10209C0003F40033002B06D0184B5A681749BB6960
:1020AC0013434B6006E0154B5A68BB69DB4313497D
:1020BC0013404B603B685B6803F48033002B1FD0EC
:1020CC000E4B1A680D49BB6913430B601FE000BF30
:1020DC00000032100000311000002210000021100E
:1020EC00000012100000111000100240000001400E
:1020FC0000080140000C01400010014000040140A8
:10210C000B4B1A68BB69DB43094913400B607B6AB4
:10211C0001337B623B681A687B6A22FA03F3002B5B
:10212C007FF496AE00BF00BF2C37BD4680BC704715
:10213C000004014080B485B000AF78600B467B8012
:10214C007B689A687B881340002B02D00123FB73B9
:10215C0001E00023FB73FB7B18461437BD4680BCA3
:10216C00704780B483B000AF78600B467B80134619
:10217C007B707B78002B03D07A887B681A6103E034
:10218C007B881A047B681A6100BF0C37BD4680BC83
:10219C007047000080B483B000AF78600B46FB70D2
:1021AC00094B1B69084A23F004031361FB78012BCC
:1021BC0001D130BF02E040BF20BF20BF00BF0C37B1
:1021CC00BD4680BC704700BF00ED00E080B586B016
:1021DC0000AF78607B68002B01D1012372E27B6831
:1021EC001B6803F00103002B00F08780924B5B68A7
:1021FC0003F00C03042B0CD08F4B5B6803F00C0327
:10220C00082B12D18C4B5B6803F48033B3F5803F01
:10221C000BD1894B1B6803F40033002B6CD07B680B
:10222C005B68002B68D101234CE27B685B68B3F5DB
:10223C00803F06D1804B1B687F4A43F48033136088
:10224C002EE07B685B68002B0CD17B4B1B687A4AB9
:10225C0023F480331360784B1B68774A23F4802374
:10226C0013601DE07B685B68B3F5A02F0CD1724B3B
:10227C001B68714A43F4802313606F4B1B686E4AD2
:10228C0043F4803313600BE06B4B1B686A4A23F4F6
:10229C0080331360684B1B68674A23F480231360F8
:1022AC007B685B68002B13D0FFF7B0FC386108E04B
:1022BC00FFF7ACFC02463B69D31A642B01D903230C
:1022CC0000E25D4B1B6803F40033002BF0D014E0EC
:1022DC00FFF79CFC386108E0FFF798FC02463B696D
:1022EC00D31A642B01D90323ECE1534B1B6803F481
:1022FC000033002BF0D100E000BF7B681B6803F0BB
:10230C000203002B63D04C4B5B6803F00C03002BD7
:10231C000BD0494B5B6803F00C03082B1CD1464BCC
:10232C005B6803F48033002B16D1434B1B6803F01E
:10233C000203002B05D07B681B69012B01D0012304
:10234C00C0E13D4B1B6823F0F8027B685B69DB0046
:10235C00394913430B603AE07B681B69002B20D092
:10236C00364B01221A60FFF751FC386108E0FFF789
:10237C004DFC02463B69D31A022B01D90323A1E180
:10238C002D4B1B6803F00203002BF0D02A4B1B686B
:10239C0023F0F8027B685B69DB00274913430B6071
:1023AC0015E0264B00221A60FFF730FC386108E07C
:1023BC00FFF72CFC02463B69D31A022B01D90323ED
:1023CC0080E11D4B1B6803F00203002BF0D17B68EE
:1023DC001B6803F00803002B3AD07B689B69002B29
:1023EC0019D0174B01221A60FFF710FC386108E076
:1023FC00FFF70CFC02463B69D31A022B01D90323CD
:10240C0060E10D4B5B6A03F00203002BF0D001205E
:10241C0000F09CFA1CE00A4B00221A60FFF7F6FB56
:10242C0038610FE0FFF7F2FB02463B69D31A022B2F
:10243C0008D9032346E100BF0010024000004242CD
:10244C0080044242924B5B6A03F00203002BE9D1F9
:10245C007B681B6803F00403002B00F0A6800023AC
:10246C00FB758B4BDB6903F08053002B0DD1884B34
:10247C00DB69874A43F08053D361854BDB6903F0FA
:10248C008053BB60BB680123FB75824B1B6803F454
:10249C008073002B18D17F4B1B687E4A43F48073EA
:1024AC001360FFF7B3FB386108E0FFF7AFFB0246A0
:1024BC003B69D31A642B01D9032303E1754B1B68C9
:1024CC0003F48073002BF0D07B68DB68012B06D102
:1024DC006F4B1B6A6E4A43F0010313622DE07B685D
:1024EC00DB68002B0CD16A4B1B6A694A23F0010391
:1024FC001362674B1B6A664A23F0040313621CE0E9
:10250C007B68DB68052B0CD1614B1B6A604A43F07E
:10251C00040313625E4B1B6A5D4A43F001031362B2
:10252C000BE05B4B1B6A5A4A23F001031362584BB6
:10253C001B6A574A23F0040313627B68DB68002B89
:10254C0015D0FFF763FB38610AE0FFF75FFB02462B
:10255C003B69D31A41F28832934201D90323B1E08B
:10256C004B4B1B6A03F00203002BEED014E0FFF779
:10257C004DFB38610AE0FFF749FB02463B69D31A71
:10258C0041F28832934201D903239BE0404B1B6AF2
:10259C0003F00203002BEED1FB7D012B05D13C4B4C
:1025AC00DB693B4A23F08053D3617B68DB69002BEA
:1025BC0000F08780364B5B6803F00C03082B61D06E
:1025CC007B68DB69022B46D1334B00221A60FFF784
:1025DC001DFB386108E0FFF719FB02463B69D31A73
:1025EC00022B01D903236DE0294B1B6803F0007308
:1025FC00002BF0D17B681B6AB3F5803F08D1244BCC
:10260C005B6823F400327B689B68214913434B6061
:10261C001F4B5B6823F474127B68196A7B685B6AD6
:10262C000B431B4913434B601B4B01221A60FFF7F2
:10263C00EDFA386108E0FFF7E9FA02463B69D31A74
:10264C00022B01D903233DE0114B1B6803F00073EF
:10265C00002BF0D035E0104B00221A60FFF7D6FAB1
:10266C00386108E0FFF7D2FA02463B69D31A022B15
:10267C0001D9032326E0064B1B6803F00073002BE3
:10268C00F0D11EE07B68DB69012B07D1012319E037
:10269C000010024000700040600042420B4B5B682F
:1026AC00FB60FB6803F480327B681B6A9A4206D19C
:1026BC00FB6803F470127B685B6A9A4201D00123B9
:1026CC0000E0002318461837BD4680BD00100240BC
:1026DC0080B584B000AF786039607B68002B01D185
:1026EC000123D0E06A4B1B6803F007033A689A4257
:1026FC0010D9674B1B6823F0070265493B681343ED
:10270C000B60634B1B6803F007033A689A4201D0D5
:10271C000123B8E07B681B6803F00203002B20D078
:10272C007B681B6803F00403002B05D0594B5B68D6
:10273C00584A43F4E06353607B681B6803F008035A
:10274C00002B05D0534B5B68524A43F460535360E3
:10275C00504B5B6823F0F0027B689B684D49134338
:10276C004B607B681B6803F00103002B40D07B6837
:10277C005B68012B07D1474B1B6803F40033002B1C
:10278C0015D101237FE07B685B68022B07D1414B9D
:10279C001B6803F00073002B09D1012373E03D4B40
:1027AC001B6803F00203002B01D101236BE0394BB2
:1027BC005B6823F003027B685B68364913434B600C
:1027CC00FFF724FAF8600AE0FFF720FA0246FB68EC
:1027DC00D31A41F28832934201D9032353E02D4B93
:1027EC005B6803F00C027B685B689B009A42EBD140
:1027FC00274B1B6803F007033A689A4210D2244B0C
:10280C001B6823F0070222493B6813430B60204BE3
:10281C001B6803F007033A689A4201D0012332E0A7
:10282C007B681B6803F00403002B08D0194B5B6812
:10283C0023F4E0627B68DB68164913434B607B68CA
:10284C001B6803F00803002B09D0124B5B6823F4C0
:10285C0060527B681B69DB000E4913434B6000F030
:10286C0021F802460B4B5B681B0903F00F030A4966
:10287C00CB5C22FA03F3094A1360094B1B68184618
:10288C00FFF782F9002318461037BD4680BD00BF04
:10289C000020024000100240BC3100086C000020F7
:1028AC007000002080B487B000AF0023FB600023D1
:1028BC00BB6000237B6100237B6000233B611E4BCC
:1028CC005B68FB60FB6803F00C03042B02D0082B45
:1028DC0003D027E0194B3B6127E0FB689B0C03F00E
:1028EC000F03174AD35C7B60FB6803F48033002B27
:1028FC0010D0114B5B685B0C03F00103114AD35CE5
:10290C00BB607B680D4A03FB02F2BB68B2FBF3F3BE
:10291C007B6104E07B680C4A02FB03F37B617B69FF
:10292C003B6102E0054B3B6100BF3B6918461C371D
:10293C00BD4680BC704700BF0010024000127A00F8
:10294C00CC310008DC31000800093D0080B485B0B2
:10295C0000AF78600A4B1B680A4AA2FB03235B0A90
:10296C007A6802FB03F3FB6000BFFB685A1EFA6037
:10297C00002BF9D100BF00BF1437BD4680BC704797
:10298C006C000020D34D621080B582B000AF78602F
:10299C007B68002B01D1012341E07B6893F83D302B
:1029AC00DBB2002B06D17B68002283F83C207868D0
:1029BC00FFF74EF87B68022283F83D207B681A688B
:1029CC007B6804331946104600F056FA7B680122E6
:1029DC0083F846207B68012283F83E207B68012225
:1029EC0083F83F207B68012283F840207B6801221A
:1029FC0083F841207B68012283F842207B68012206
:102A0C0083F843207B68012283F844207B680122F1
:102A1C0083F845207B68012283F83D20002318466B
:102A2C000837BD4680BD000080B485B000AF78602B
:102A3C007B6893F83D30DBB2012B01D0012335E0EC
:102A4C007B68022283F83D207B681B68DA687B6810
:102A5C001B6842F00102DA607B681B68164A9342DD
:102A6C0009D07B681B68B3F1804F04D07B681B686E
:102A7C00124A934211D17B681B689B6803F00703D1
:102A8C00FB60FB68062B10D07B681B681A687B68A0
:102A9C001B6842F001021A6007E07B681B681A6829
:102AAC007B681B6842F001021A6000231846143739
:102ABC00BD4680BC704700BF002C014000040040A4
:102ACC0080B584B000AF78607B681B68DB68FB6006
:102ADC007B681B681B69BB60BB6803F00203002B9F
:102AEC0020D0FB6803F00203002B1BD07B681B6813
:102AFC006FF002021A617B6801221A777B681B68EF
:102B0C009B6903F00303002B03D0786800F098F95D
:102B1C0005E0786800F08BF9786800F09AF97B682A
:102B2C0000221A77BB6803F00403002B20D0FB684B
:102B3C0003F00403002B1BD07B681B686FF00402AE
:102B4C001A617B6802221A777B681B689B6903F405
:102B5C004073002B03D0786800F072F905E07868B8
:102B6C0000F065F9786800F074F97B6800221A7738
:102B7C00BB6803F00803002B20D0FB6803F00803AC
:102B8C00002B1BD07B681B686FF008021A617B68F6
:102B9C0004221A777B681B68DB6903F00303002BA4
:102BAC0003D0786800F04CF905E0786800F03FF944
:102BBC00786800F04EF97B6800221A77BB6803F046
:102BCC001003002B20D0FB6803F01003002B1BD04C
:102BDC007B681B686FF010021A617B6808221A77F9
:102BEC007B681B68DB6903F44073002B03D07868A7
:102BFC0000F026F905E0786800F019F9786800F023
:102C0C0028F97B6800221A77BB6803F00103002BBC
:102C1C000CD0FB6803F00103002B07D07B681B680A
:102C2C006FF001021A617868FEF784FCBB6803F050
:102C3C008003002B0CD0FB6803F08003002B07D023
:102C4C007B681B686FF080021A61786800F06FFA7D
:102C5C00BB6803F04003002B0CD0FB6803F040036F
:102C6C00002B07D07B681B686FF040021A617868F4
:102C7C0000F0F8F8BB6803F02003002B0CD0FB68C5
:102C8C0003F02003002B07D07B681B686FF0200239
:102C9C001A61786800F042FA00BF1037BD4680BD5B
:102CAC0080B584B000AF786039600023FB737B681B
:102CBC0093F83C30012B01D10223B4E07B68012254
:102CCC0083F83C207B68022283F83D207B681B68DC
:102CDC009B68BB60BB6823F07703BB60BB6823F4C5
:102CEC007F43BB607B681B68BA689A603B681B6853
:102CFC00B3F5005F3ED0B3F5005F00F28780B3F50B
:102D0C00805F00F08680B3F5805F7FD8702B1AD07F
:102D1C00702B7BD8602B50D0602B77D8502B3CD0AD
:102D2C00502B73D8402B58D0402B6FD8302B64D0FD
:102D3C00302B6BD8202B60D0202B67D8002B5CD08D
:102D4C00102B5AD062E07B6818683B6899683B6826
:102D5C005A683B68DB6800F06AF97B681B689B6803
:102D6C00BB60BB6843F07703BB607B681B68BA68C9
:102D7C009A604FE07B6818683B6899683B685A68B2
:102D8C003B68DB6800F053F97B681B689A687B68CA
:102D9C001B6842F480429A603CE07B6818683B6890
:102DAC0059683B68DB681A4600F0CAF87B681B68F8
:102DBC005021184600F021F92CE07B6818683B681C
:102DCC0059683B68DB681A4600F0E8F87B681B68BA
:102DDC006021184600F011F91CE07B6818683B680C
:102DEC0059683B68DB681A4600F0AAF87B681B68D8
:102DFC004021184600F001F90CE07B681A683B682A
:102E0C001B681946104600F0F8F803E00123FB7329
:102E1C0000E000BF7B68012283F83D207B68002224
:102E2C0083F83C20FB7B18461037BD4680BD80B430
:102E3C0083B000AF786000BF0C37BD4680BC7047D4
:102E4C0080B483B000AF786000BF0C37BD4680BC47
:102E5C00704780B483B000AF786000BF0C37BD46BC
:102E6C0080BC704780B483B000AF786000BF0C3773
:102E7C00BD4680BC7047000080B485B000AF786060
:102E8C0039607B681B68FB607B682B4A934207D0D8
:102E9C007B68B3F1804F03D07B68284A934208D1FA
:102EAC00FB6823F07003FB603B685B68FA681343B4
:102EBC00FB607B68204A934207D07B68B3F1804F5C
:102ECC0003D07B681D4A934208D1FB6823F44073FE
:102EDC00FB603B68DB68FA681343FB60FB6823F01C
:102EEC0080023B685B691343FB607B68FA681A607D
:102EFC003B689A687B68DA623B681A687B689A62FE
:102F0C007B680D4A934203D13B681A697B681A634C
:102F1C007B6801225A617B681B6903F00103002B5B
:102F2C0005D07B681B6923F001027B681A6100BF26
:102F3C001437BD4680BC7047002C01400004004093
:102F4C0080B487B000AFF860B9607A60FB681B6A28
:102F5C007B61FB681B6A23F00102FB681A62FB6849
:102F6C009B693B613B6923F0F0033B617B681B0170
:102F7C003A6913433B617B6923F00A037B617A69ED
:102F8C00BB6813437B61FB683A699A61FB687A6999
:102F9C001A6200BF1C37BD4680BC704780B487B036
:102FAC0000AFF860B9607A60FB681B6A7B61FB68F4
:102FBC001B6A23F01002FB681A62FB689B693B6179
:102FCC003B6923F470433B617B681B033A691343F1
:102FDC003B617B6923F0A0037B61BB681B017A69B1
:102FEC0013437B61FB683A699A61FB687A691A62E0
:102FFC0000BF1C37BD4680BC704780B485B000AFA5
:10300C00786039607B689B68FB60FB6823F0700319
:10301C00FB603A68FB68134343F00703FB607B6873
:10302C00FA689A6000BF1437BD4680BC704780B404
:10303C0087B000AFF860B9607A603B60FB689B6852
:10304C007B617B6923F47F437B613B681A027B685D
:10305C001A43BB6813437A6913437B61FB687A6933
:10306C009A6000BF1C37BD4680BC704780B485B0E9
:10307C0000AF786039607B6893F83C30012B01D14C
:10308C00022341E07B68012283F83C207B6802220A
:10309C0083F83D207B681B685B68FB607B681B6862
:1030AC009B68BB60FB6823F07003FB603B681B688C
:1030BC00FA681343FB607B681B68FA685A607B688C
:1030CC001B68144A934209D07B681B68B3F1804F8C
:1030DC0004D07B681B68104A93420CD1BB6823F068
:1030EC008003BB603B685B68BA681343BB607B685A
:1030FC001B68BA689A607B68012283F83D207B6864
:10310C00002283F83C20002318461437BD4680BCAF
:10311C00704700BF002C01400004004080B483B015
:10312C0000AF786000BF0C37BD4680BC704780B4E0
:10313C0083B000AF786000BF0C37BD4680BC7047D1
:10314C0003460244934200D1704703F8011BF9E790
:10315C0070B500260C4D0D4C641BA410A64209D171
:10316C0000F01AF800260A4D0A4C641BA410A64263
:10317C0005D170BD55F8043B98470136EEE755F87C
:10318C00043B98470136F2E7E0310008E0310008D3
:10319C00E0310008E4310008F8B500BFF8BC08BC09
:1031AC009E467047F8B500BFF8BC08BC9E467047F9
:1031BC0000000000000000000102030406070809DB
:1031CC0002030405060708090A0B0C0D0E0F10105C
:0431DC0001020000EC
:0431E00031010008B1
:0431E4000D010008D1
:1031E80001000000010000000100000001000000D3
:1031F80001000000010000000100000001000000C3
:1032080001000000010000000100000001000000B2
:1032180001000000000000000000000003000000A2
:1032280014000000F40100002C010000F40100006B
:10323800F4010000C80000002C0100001900000083
:1032480001000000010000000100000000127A00E7
:0832580010000000010000005D
:0400000508001B1DB7
:00000001FF
