:020000040800F2
:1000000000280020110D0008AD0C0008B50C0008F8
:10001000BD0C0008C50C0008CD0C00080000000055
:10002000000000000000000000000000D50C0008E7
:10003000E10C000800000000ED0C0008F90C0008BD
:10004000590D0008590D0008590D0008590D0008F8
:10005000590D0008590D0008590D0008590D0008E8
:10006000590D0008590D0008590D0008590D0008D8
:10007000590D0008590D0008590D0008590D0008C8
:10008000590D0008590D0008590D0008590D0008B8
:10009000590D0008590D0008590D0008590D0008A8
:1000A000590D0008590D0008590D0008590D000898
:1000B000590D0008590D000800000000590D0008F6
:1000C000590D00080000000000000000590D000854
:1000D00000000000590D0008590D00080000000044
:1000E000590D0008590D0008590D000800000000C6
:1000F0000000000000000000000000000000000000
:0C01000000000000000000005FF808F1A3
:10010C0010B5054C237833B9044B13B10448AFF345
:10011C0000800123237010BD0C00002000000000A3
:10012C006C1B000808B5034B1BB103490348AFF324
:10013C00008008BD00000000100000206C1B0008AF
:10014C0080B584B000AF78600023FB600123BB60F6
:10015C00BB68DBB21A460221A94801F0DFF8BB6884
:10016C00DBB21A460421A64801F0D8F8BB68DBB212
:10017C001A460821A24801F0D1F8BB68DBB21A4636
:10018C0010219F4801F0CAF8BB68DBB21A46202147
:10019C009B4801F0C3F8BB68DBB21A464021984873
:1001AC0001F0BCF8BB68DBB21A468021944801F020
:1001BC00B5F87B68092B00F2828101A252F823F07A
:1001CC00F50100085902000877020008BF02000878
:1001DC00070300084103000889030008DF03000837
:1001EC001104000875040008FB68DBB21A460221F2
:1001FC00834801F093F8FB68DBB21A46042180486F
:10020C0001F08CF8FB68DBB21A4608217C4801F03F
:10021C0085F8FB68DBB21A461021794801F07EF8AC
:10022C00FB68DBB21A462021754801F077F8FB68B1
:10023C00DBB21A464021724801F070F8BB68DBB2A1
:10024C001A4680216E4801F069F839E1FB68DBB28F
:10025C001A4604216A4801F061F8FB68DBB21A46C1
:10026C000821674801F05AF82AE1FB68DBB21A460C
:10027C000221634801F052F8FB68DBB21A460421F4
:10028C005F4801F04BF8FB68DBB21A4610215C4862
:10029C0001F044F8FB68DBB21A462021584801F003
:1002AC003DF8FB68DBB21A468021554801F036F860
:1002BC0006E1FB68DBB21A460221514801F02EF828
:1002CC00FB68DBB21A4604214D4801F027F8FB68A5
:1002DC00DBB21A4608214A4801F020F8FB68DBB271
:1002EC001A461021464801F019F8FB68DBB21A4691
:1002FC008021434801F012F8E2E0FB68DBB21A46B9
:10030C0004213F4801F00AF8FB68DBB21A460821C9
:10031C003B4801F003F8FB68DBB21A464021384831
:10032C0000F0FCFFFB68DBB21A468021344800F079
:10033C00F5FFC5E0FB68DBB21A460221304800F03D
:10034C00EDFFFB68DBB21A4608212D4800F0E6FFF2
:10035C00FB68DBB21A461021294800F0DFFFFB686E
:10036C00DBB21A464021264800F0D8FFFB68DBB20E
:10037C001A468021224800F0D1FFA1E0FB68DBB2D5
:10038C001A4602211E4800F0C9FFFB68DBB21A4670
:10039C0008211B4800F0C2FFFB68DBB21A46102193
:1003AC00174800F0BBFFFB68DBB21A46202114484B
:1003BC0000F0B4FFFB68DBB21A464021104800F095
:1003CC00ADFFFB68DBB21A4680210D4800F0A6FF9A
:1003DC0076E0FB68DBB21A460221094800F09EFF6A
:1003EC00FB68DBB21A460421054800F097FFFB6856
:1003FC00DBB21A460821024800F090FF60E000BF13
:10040C00000C0140FB68DBB21A4602212E4800F0BA
:10041C0085FFFB68DBB21A4604212B4800F07EFFF7
:10042C00FB68DBB21A460821274800F077FFFB680F
:10043C00DBB21A461021244800F070FFFB68DBB2D7
:10044C001A462021204800F069FFFB68DBB21A46EF
:10045C0040211D4800F062FFFB68DBB21A46802188
:10046C00194800F05BFF2BE0FB68DBB21A46022157
:10047C00154800F053FFFB68DBB21A460421124802
:10048C0000F04CFFFB68DBB21A4608210E4800F066
:10049C0045FFFB68DBB21A4610210B4800F03EFF0B
:1004AC00FB68DBB21A464021074800F037FFFB68B7
:1004BC00DBB21A468021044800F030FF00E000BF98
:1004CC0000BF1037BD4680BD000C014080B584B024
:1004DC0000AF78600023FB600123BB60BB68DBB21C
:1004EC001A464FF48071B34800F018FFBB68DBB2BA
:1004FC001A464FF40071AF4800F010FFBB68DBB236
:10050C001A464FF48061AB4800F008FFBB68DBB2C1
:10051C001A464FF40061A74800F000FFBB68DBB23D
:10052C001A464FF48051A34800F0F8FEBB68DBB2CA
:10053C001A464FF400519F4800F0F0FEBB68DBB246
:10054C001A464FF480419B4800F0E8FE7B68092B6B
:10055C0000F2B58101A252F823F000BF910500080A
:10056C00030600082506000877060008C9060008DF
:10057C000B0700085D070008C5070008F70700080F
:10058C0069080008FB68DBB21A464FF48071894891
:10059C0000F0C4FEFB68DBB21A464FF400718548CC
:1005AC0000F0BCFEFB68DBB21A464FF48061814858
:1005BC0000F0B4FEFB68DBB21A464FF400617D48D4
:1005CC0000F0ACFEFB68DBB21A464FF48051794860
:1005DC0000F0A4FEFB68DBB21A464FF400517548DC
:1005EC0000F09CFEBB68DBB21A464FF480417148A8
:1005FC0000F094FE64E1FB68DBB21A464FF4007124
:10060C006C4800F08BFEFB68DBB21A464FF480613D
:10061C00684800F083FE53E1FB68DBB21A464FF4E6
:10062C008071644800F07AFEFB68DBB21A464FF426
:10063C000071604800F072FEFB68DBB21A464FF4A2
:10064C0000615C4800F06AFEFB68DBB21A464FF4AE
:10065C008051584800F062FEFB68DBB21A464FF43A
:10066C008041544800F05AFE2AE1FB68DBB21A467E
:10067C004FF480714F4800F051FEFB68DBB21A4614
:10068C004FF400714B4800F049FEFB68DBB21A4690
:10069C004FF48061474800F041FEFB68DBB21A461C
:1006AC004FF40061434800F039FEFB68DBB21A4698
:1006BC004FF480413F4800F031FE01E1FB68DBB2B2
:1006CC001A464FF400713B4800F028FEFB68DBB281
:1006DC001A464FF48061374800F020FEFB68DBB20D
:1006EC001A464FF40051334800F018FEFB68DBB299
:1006FC001A464FF480412F4800F010FEE0E0FB68F2
:10070C00DBB21A464FF480712A4800F007FEFB68F2
:10071C00DBB21A464FF48061264800F0FFFDFB68FF
:10072C00DBB21A464FF40061224800F0F7FDFB687B
:10073C00DBB21A464FF400511E4800F0EFFDFB6887
:10074C00DBB21A464FF480411A4800F0E7FDB7E0DF
:10075C00FB68DBB21A464FF48071164800F0DEFDE0
:10076C00FB68DBB21A464FF48061124800F0D6FDEC
:10077C00FB68DBB21A464FF400610E4800F0CEFD68
:10078C00FB68DBB21A464FF480510A4800F0C6FDF4
:10079C00FB68DBB21A464FF40051064800F0BEFD70
:1007AC00FB68DBB21A464FF48041024800F0B6FDFC
:1007BC0086E000BF000C0140FB68DBB21A464FF428
:1007CC008071414800F0AAFDFB68DBB21A464FF479
:1007DC0000713D4800F0A2FDFB68DBB21A464FF4F5
:1007EC008061394800F09AFD6AE0FB68DBB21A467A
:1007FC004FF48071344800F091FDFB68DBB21A466F
:10080C004FF40071304800F089FDFB68DBB21A46EA
:10081C004FF480612C4800F081FDFB68DBB21A4676
:10082C004FF40061284800F079FDFB68DBB21A46F2
:10083C004FF48051244800F071FDFB68DBB21A467E
:10084C004FF40051204800F069FDFB68DBB21A46FA
:10085C004FF480411C4800F061FD31E0FB68DBB2D5
:10086C001A464FF48071184800F058FDFB68DBB253
:10087C001A464FF40071144800F050FDFB68DBB2CF
:10088C001A464FF48061104800F048FDFB68DBB25B
:10089C001A464FF400610C4800F040FDFB68DBB2D7
:1008AC001A464FF40051084800F038FDFB68DBB2E3
:1008BC001A464FF48041044800F030FD00E000BFC0
:1008CC0000BF1037BD4680BD000C014080B586B01E
:1008DC0000AF0023BB6001237B6000237B610723F7
:1008EC003B610523FB607B69042B39DC3869FFF71E
:1008FC0027FC3B69013B3B617B6901337B61BB6836
:10090C00DBB21A460221834800F008FD7B68DBB29B
:10091C001A4604217F4800F001FD7B68DBB21A46C1
:10092C0008217C4800F0FAFCF868FFF7CFFDFB6863
:10093C00013BFB607B68DBB21A461021754800F066
:10094C00EDFC7B68DBB21A462021724800F0E6FC15
:10095C00BB68DBB21A4640216E4800F0DFFCD3E0E6
:10096C007B69042B2CDD7B69062B29DC7B69052B31
:10097C0001D10223FB603869FFF7E2FB3B69013BC5
:10098C003B617B6901337B61BB68DBB21A46022198
:10099C00604800F0C3FCF868FFF798FDFB68013B6A
:1009AC00FB607B68DBB21A4640215A4800F0B6FC6B
:1009BC00BB68DBB21A462021564800F0AFFCA3E01E
:1009CC007B69062B35DD7B690B2B32DC7B69072BB6
:1009DC0003D105233B610723FB603869FFF7B0FBAC
:1009EC003B69013B3B617B6901337B617B68DBB21B
:1009FC001A460221474800F091FCBB68DBB21A464C
:100A0C000821444800F08AFCF868FFF75FFDFB689A
:100A1C00013BFB607B68DBB21A4620213D4800F0AD
:100A2C007DFCBB68DBB21A4610213A4800F076FC1C
:100A3C006AE07B690B2B33DD7B690D2B30DC7B692A
:100A4C000C2B01D102233B613869FFF779FB3B6921
:100A5C00013B3B617B6901337B617B68DBB21A46EE
:100A6C0008212C4800F05AFCBB68DBB21A46042162
:100A7C00284800F053FCF868FFF728FDFB68013BA1
:100A8C00FB607B68DBB21A464021224800F046FC32
:100A9C00BB68DBB21A4610211E4800F03FFC33E065
:100AAC007B690D2B30DD7B690E2B03D107233B615A
:100ABC000523FB603869FFF743FB3B69013B3B6156
:100ACC0000237B617B68DBB21A460421114800F0DD
:100ADC0025FCBB68DBB21A4602210E4800F01EFC56
:100AEC00F868FFF7F3FCFB68013BFB607B68DBB24B
:100AFC001A461021074800F011FCBB68DBB21A46FD
:100B0C004021044800F00AFC4FF47A7000F082F99E
:100B1C00E9E600BF0008014080B500AF00F018F90D
:100B2C0000F007F800F040F8FFF7D0FE002318465D
:100B3C0080BD80B590B000AF07F1180328220021CA
:100B4C00184600F0E1FF3B1D00221A605A609A60C3
:100B5C00DA601A610223BB610123BB621023FB62C2
:100B6C0000237B6307F11803184600F0EFFB0346E4
:100B7C00002B01D000F06CF80F237B600023BB60CE
:100B8C000023FB6000233B6100237B613B1D0021A4
:100B9C00184600F05DFE0346002B01D000F058F81B
:100BAC0000BF4037BD4680BD80B586B000AF07F1B1
:100BBC00080300221A605A609A60DA60214B9B6924
:100BCC00204A43F0040393611E4B9B6903F004031A
:100BDC007B607B681B4B9B691A4A43F0080393614B
:100BEC00184B9B6903F008033B603B6800227E2195
:100BFC00154800F093FB002247F6FE71134800F0F5
:100C0C008DFB7E23BB600123FB6000233B61022331
:100C1C007B6107F1080319460B4800F003FA47F60D
:100C2C00FE73BB600123FB6000233B6102237B61ED
:100C3C0007F108031946054800F0F4F900BF18370E
:100C4C00BD4680BD0010024000080140000C014070
:100C5C0080B400AF72B600BF00BFFDE780B483B0B4
:100C6C0000AF0E4B9B690D4A43F0010393610B4B94
:100C7C009B6903F001037B607B68084BDB69074AC7
:100C8C0043F08053D361054BDB6903F080533B6029
:100C9C003B6800BF0C37BD4680BC7047001002405B
:100CAC0080B400AF00BFFDE780B400AF00BFFDE72C
:100CBC0080B400AF00BFFDE780B400AF00BFFDE71C
:100CCC0080B400AF00BFFDE780B400AF00BFBD46ED
:100CDC0080BC704780B400AF00BFBD4680BC70477D
:100CEC0080B400AF00BFBD4680BC704780B500AF7C
:100CFC0000F074F800BF80BD80B400AF00BFBD46EB
:100D0C0080BC7047FFF7F8FF0B480C490C4A0023D6
:100D1C0002E0D458C4500433C4188C42F9D3094AA5
:100D2C00094C002301E013600432A242FBD300F013
:100D3C00F3FEFFF7F1FE7047000000200C000020CE
:100D4C00B01B00080C0000202C000020FEE7000067
:100D5C0080B500AF084B1B68074A43F010031360C3
:100D6C00032000F02BF90F2000F008F8FFF776FFB6
:100D7C000023184680BD00BF0020024080B582B021
:100D8C0000AF7860124B1A68124B1B7819464FF45F
:100D9C007A73B3FBF1F3B2FBF3F3184600F035F9B9
:100DAC000346002B01D001230EE07B680F2B0AD8E1
:100DBC00002279684FF0FF3000F00BF9064A7B688F
:100DCC001360002300E0012318460837BD4680BDA0
:100DDC0000000020080000200400002080B400AFB8
:100DEC00054B1B781A46054B1B681344034A1360CA
:100DFC0000BFBD4680BC70470800002028000020C2
:100E0C0080B400AF024B1B681846BD4680BC7047CF
:100E1C002800002080B584B000AF7860FFF7F0FFA9
:100E2C00B8607B68FB60FB68B3F1FF3F05D00A4BF1
:100E3C001B781A46FB681344FB6000BFFFF7E0FF0A
:100E4C000246BB68D31AFA689A42F7D800BF00BFB3
:100E5C001037BD4680BD00BF0800002080B485B0AF
:100E6C0000AF78607B6803F00703FB600C4BDB681A
:100E7C00BB60BA684FF6FF031340BB60FB681A02F5
:100E8C00BB68134343F0BF6343F40033BB60044AB5
:100E9C00BB68D36000BF1437BD4680BC704700BF31
:100EAC0000ED00E080B400AF044BDB681B0A03F0DC
:100EBC0007031846BD4680BC704700BF00ED00E03C
:100ECC0080B483B000AF03463960FB7197F90730EB
:100EDC00002B0ADB3B68DAB20C4997F90730120198
:100EEC00D2B20B4483F800230AE03B68DAB208491B
:100EFC00FB7903F00F03043B1201D2B20B441A76B8
:100F0C0000BF0C37BD4680BC704700BF00E100E05D
:100F1C0000ED00E080B489B000AFF860B9607A6091
:100F2C00FB6803F00703FB61FB69C3F10703042BA8
:100F3C0028BF0423BB61FB690433062B02D9FB6970
:100F4C00033B00E000237B614FF0FF32BB6902FAE8
:100F5C0003F3DA43BB681A407B699A404FF0FF31C8
:100F6C007B6901FA03F3D9437B680B4013431846A2
:100F7C002437BD4680BC704780B582B000AF786026
:100F8C007B68013BB3F1807F01D301230FE00A4A58
:100F9C007B68013B53600F214FF0FF30FFF790FF50
:100FAC00054B00229A60044B07221A600023184656
:100FBC000837BD4680BD00BF10E000E080B582B0B0
:100FCC0000AF78607868FFF749FF00BF0837BD466F
:100FDC0080BD80B586B000AF0346B9607A60FB7304
:100FEC0000237B61FFF75EFF78617A68B9687869E6
:100FFC00FFF790FF024697F90F3011461846FFF79E
:10100C005FFF00BF1837BD4680BD80B582B000AF12
:10101C0078607868FFF7B0FF034618460837BD467E
:10102C0080BD000080B48BB000AF786039600023C5
:10103C007B6200233B6261E101227B6A02FA03F3CB
:10104C00FB613B681B68FA691340BB61BA69FB69B9
:10105C009A4240F050813B685B68974A93425ED05D
:10106C00954A934275D8954A934258D0934A9342E5
:10107C006FD8934A934252D0914A934269D8914A7D
:10108C0093424CD08F4A934263D88F4A934246D0B6
:10109C008D4A93425DD8122B2AD8122B59D801A213
:1010AC0052F823F02B110008051100081711000845
:1010BC00591100085F1100085F1100085F1100084A
:1010CC005F1100085F1100085F1100085F11000834
:1010DC005F1100085F1100085F1100085F11000824
:1010EC005F1100085F1100080D11000821110008A4
:1010FC00764A934213D02CE03B68DB683B6229E0D4
:10110C003B68DB6804333B6224E03B68DB680833F4
:10111C003B621FE03B68DB680C333B621AE03B68C8
:10112C009B68002B02D104233B6213E03B689B6855
:10113C00012B05D108233B627B68FA691A6109E02F
:10114C0008233B627B68FA695A6103E000233B6227
:10115C0000E000BFBB69FF2B01D87B6801E07B6816
:10116C0004337B61BB69FF2B02D87B6A9B0002E0D6
:10117C007B6A083B9B003B617B691A680F213B69CA
:10118C0001FA03F3DB431A40396A3B6901FA03F3B2
:10119C001A437B691A603B685B6803F08053002B31
:1011AC0000F0A9804A4B9B69494A43F001039361C3
:1011BC00474B9B6903F00103BB60BB68454A7B6AE4
:1011CC009B08023352F82330FB607B6A03F0030365
:1011DC009B000F2202FA03F3DB43FA681340FB6017
:1011EC007B683D4A93420DD07B683C4A934207D0C2
:1011FC007B683B4A934201D1022304E0032302E0C3
:10120C00012300E000237A6A02F00302920093406B
:10121C00FA681343FB602F497B6A9B080233FA6818
:10122C0041F823203B685B6803F48013002B06D045
:10123C002C4B9A682B49BB6913438B6006E0294BF6
:10124C009A68BB69DB43274913408B603B685B683A
:10125C0003F40013002B06D0224BDA682149BB693A
:10126C001343CB6006E01F4BDA68BB69DB431D49B7
:10127C001340CB603B685B6803F40033002B06D053
:10128C00184B5A681749BB6913434B6006E0154B62
:10129C005A68BB69DB43134913404B603B685B687E
:1012AC0003F48033002B1FD00E4B1A680D49BB6919
:1012BC0013430B601FE000BF000032100000311020
:1012CC00000022100000211000001210000011106C
:1012DC00001002400000014000080140000C0140D9
:1012EC0000100140000401400B4B1A68BB69DB4342
:1012FC00094913400B607B6A01337B623B681A68B7
:10130C007B6A22FA03F3002B7FF496AE00BF00BF7A
:10131C002C37BD4680BC70470004014080B483B0BC
:10132C0000AF78600B467B8013467B707B78002B7C
:10133C0003D07A887B681A6103E07B881A047B6887
:10134C001A6100BF0C37BD4680BC704780B586B0B3
:10135C0000AF78607B68002B01D1012372E27B68BF
:10136C001B6803F00103002B00F08780924B5B6835
:10137C0003F00C03042B0CD08F4B5B6803F00C03B5
:10138C00082B12D18C4B5B6803F48033B3F5803F90
:10139C000BD1894B1B6803F40033002B6CD07B689A
:1013AC005B68002B68D101234CE27B685B68B3F56A
:1013BC00803F06D1804B1B687F4A43F48033136017
:1013CC002EE07B685B68002B0CD17B4B1B687A4A48
:1013DC0023F480331360784B1B68774A23F4802303
:1013EC0013601DE07B685B68B3F5A02F0CD1724BCA
:1013FC001B68714A43F4802313606F4B1B686E4A61
:10140C0043F4803313600BE06B4B1B686A4A23F484
:10141C0080331360684B1B68674A23F48023136086
:10142C007B685B68002B13D0FFF7EAFC386108E09F
:10143C00FFF7E6FC02463B69D31A642B01D9032360
:10144C0000E25D4B1B6803F40033002BF0D014E07A
:10145C00FFF7D6FC386108E0FFF7D2FC02463B6987
:10146C00D31A642B01D90323ECE1534B1B6803F40F
:10147C000033002BF0D100E000BF7B681B6803F049
:10148C000203002B63D04C4B5B6803F00C03002B66
:10149C000BD0494B5B6803F00C03082B1CD1464B5B
:1014AC005B6803F48033002B16D1434B1B6803F0AD
:1014BC000203002B05D07B681B69012B01D0012393
:1014CC00C0E13D4B1B6823F0F8027B685B69DB00D5
:1014DC00394913430B603AE07B681B69002B20D021
:1014EC00364B01221A60FFF78BFC386108E0FFF7DE
:1014FC0087FC02463B69D31A022B01D90323A1E1D5
:10150C002D4B1B6803F00203002BF0D02A4B1B68F9
:10151C0023F0F8027B685B69DB00274913430B60FF
:10152C0015E0264B00221A60FFF76AFC386108E0D0
:10153C00FFF766FC02463B69D31A022B01D9032341
:10154C0080E11D4B1B6803F00203002BF0D17B687C
:10155C001B6803F00803002B3AD07B689B69002BB7
:10156C0019D0174B01221A60FFF74AFC386108E0CA
:10157C00FFF746FC02463B69D31A022B01D9032321
:10158C0060E10D4B5B6A03F00203002BF0D00120ED
:10159C0000F09CFA1CE00A4B00221A60FFF730FCAA
:1015AC0038610FE0FFF72CFC02463B69D31A022B83
:1015BC0008D9032346E100BF00100240000042425C
:1015CC0080044242924B5B6A03F00203002BE9D188
:1015DC007B681B6803F00403002B00F0A68000233B
:1015EC00FB758B4BDB6903F08053002B0DD1884BC3
:1015FC00DB69874A43F08053D361854BDB6903F089
:10160C008053BB60BB680123FB75824B1B6803F4E2
:10161C008073002B18D17F4B1B687E4A43F4807378
:10162C001360FFF7EDFB386108E0FFF7E9FB0246BA
:10163C003B69D31A642B01D9032303E1754B1B6857
:10164C0003F48073002BF0D07B68DB68012B06D190
:10165C006F4B1B6A6E4A43F0010313622DE07B68EB
:10166C00DB68002B0CD16A4B1B6A694A23F001031F
:10167C001362674B1B6A664A23F0040313621CE077
:10168C007B68DB68052B0CD1614B1B6A604A43F00D
:10169C00040313625E4B1B6A5D4A43F00103136241
:1016AC000BE05B4B1B6A5A4A23F001031362584B45
:1016BC001B6A574A23F0040313627B68DB68002B18
:1016CC0015D0FFF79DFB38610AE0FFF799FB024646
:1016DC003B69D31A41F28832934201D90323B1E01A
:1016EC004B4B1B6A03F00203002BEED014E0FFF708
:1016FC0087FB38610AE0FFF783FB02463B69D31A8C
:10170C0041F28832934201D903239BE0404B1B6A80
:10171C0003F00203002BEED1FB7D012B05D13C4BDA
:10172C00DB693B4A23F08053D3617B68DB69002B78
:10173C0000F08780364B5B6803F00C03082B61D0FC
:10174C007B68DB69022B46D1334B00221A60FFF712
:10175C0057FB386108E0FFF753FB02463B69D31A8D
:10176C00022B01D903236DE0294B1B6803F0007396
:10177C00002BF0D17B681B6AB3F5803F08D1244B5A
:10178C005B6823F400327B689B68214913434B60F0
:10179C001F4B5B6823F474127B68196A7B685B6A65
:1017AC000B431B4913434B601B4B01221A60FFF781
:1017BC0027FB386108E0FFF723FB02463B69D31A8D
:1017CC00022B01D903233DE0114B1B6803F000737E
:1017DC00002BF0D035E0104B00221A60FFF710FB05
:1017EC00386108E0FFF70CFB02463B69D31A022B69
:1017FC0001D9032326E0064B1B6803F00073002B72
:10180C00F0D11EE07B68DB69012B07D1012319E0C5
:10181C000010024000700040600042420B4B5B68BD
:10182C00FB60FB6803F480327B681B6A9A4206D12A
:10183C00FB6803F470127B685B6A9A4201D0012347
:10184C0000E0002318461837BD4680BD001002404A
:10185C0080B584B000AF786039607B68002B01D113
:10186C000123D0E06A4B1B6803F007033A689A42E5
:10187C0010D9674B1B6823F0070265493B6813437B
:10188C000B60634B1B6803F007033A689A4201D064
:10189C000123B8E07B681B6803F00203002B20D007
:1018AC007B681B6803F00403002B05D0594B5B6865
:1018BC00584A43F4E06353607B681B6803F00803E9
:1018CC00002B05D0534B5B68524A43F46053536072
:1018DC00504B5B6823F0F0027B689B684D491343C7
:1018EC004B607B681B6803F00103002B40D07B68C6
:1018FC005B68012B07D1474B1B6803F40033002BAB
:10190C0015D101237FE07B685B68022B07D1414B2B
:10191C001B6803F00073002B09D1012373E03D4BCE
:10192C001B6803F00203002B01D101236BE0394B40
:10193C005B6823F003027B685B68364913434B609A
:10194C00FFF75EFAF8600AE0FFF75AFA0246FB6806
:10195C00D31A41F28832934201D9032353E02D4B21
:10196C005B6803F00C027B685B689B009A42EBD1CE
:10197C00274B1B6803F007033A689A4210D2244B9A
:10198C001B6823F0070222493B6813430B60204B72
:10199C001B6803F007033A689A4201D0012332E036
:1019AC007B681B6803F00403002B08D0194B5B68A1
:1019BC0023F4E0627B68DB68164913434B607B6859
:1019CC001B6803F00803002B09D0124B5B6823F44F
:1019DC0060527B681B69DB000E4913434B6000F0BF
:1019EC0021F802460B4B5B681B0903F00F030A49F5
:1019FC00CB5C22FA03F3094A1360094B1B681846A7
:101A0C00FFF7BCF9002318461037BD4680BD00BF58
:101A1C000020024000100240841B0008000000203F
:101A2C000400002080B487B000AF0023FB600023CB
:101A3C00BB6000237B6100237B6000233B611E4B5A
:101A4C005B68FB60FB6803F00C03042B02D0082BD3
:101A5C0003D027E0194B3B6127E0FB689B0C03F09C
:101A6C000F03174AD35C7B60FB6803F48033002BB5
:101A7C0010D0114B5B685B0C03F00103114AD35C73
:101A8C00BB607B680D4A03FB02F2BB68B2FBF3F34D
:101A9C007B6104E07B680C4A02FB03F37B617B698E
:101AAC003B6102E0054B3B6100BF3B6918461C37AC
:101ABC00BD4680BC704700BF0010024000127A0087
:101ACC00941B0008A41B000800093D0080B485B0DD
:101ADC0000AF78600A4B1B680A4AA2FB03235B0A1F
:101AEC007A6802FB03F3FB6000BFFB685A1EFA60C6
:101AFC00002BF9D100BF00BF1437BD4680BC704726
:101B0C0000000020D34D621003460244934200D1E2
:101B1C00704703F8011BF9E770B500260C4D0D4C0E
:101B2C00641BA410A64209D100F01AF800260A4D35
:101B3C000A4C641BA410A64205D170BD55F8043B99
:101B4C0098470136EEE755F8043B98470136F2E723
:101B5C00A81B0008A81B0008A81B0008AC1B000849
:101B6C00F8B500BFF8BC08BC9E467047F8B500BF7E
:081B7C00F8BC08BC9E4670474E
:101B84000000000000000000010203040607080929
:101B940002030405060708090A0B0C0D0E0F1010AA
:041BA400010200003A
:041BA80031010008FF
:041BAC000D0100081F
:0C1BB00000127A0010000000010000008C
:0400000508000D11D1
:00000001FF
